{
  "_format": "hh-sol-artifact-1",
  "contractName": "InsuranceContract",
  "sourceName": "contracts/InsuranceContract.sol",
  "abi": [
    {
      "inputs": [
        {
          "internalType": "uint256",
          "name": "_premium",
          "type": "uint256"
        },
        {
          "internalType": "uint256",
          "name": "_coverageAmount",
          "type": "uint256"
        }
      ],
      "stateMutability": "nonpayable",
      "type": "constructor"
    },
    {
      "inputs": [],
      "name": "coverageAmount",
      "outputs": [
        {
          "internalType": "uint256",
          "name": "",
          "type": "uint256"
        }
      ],
      "stateMutability": "view",
      "type": "function"
    },
    {
      "inputs": [],
      "name": "insurer",
      "outputs": [
        {
          "internalType": "address payable",
          "name": "",
          "type": "address"
        }
      ],
      "stateMutability": "view",
      "type": "function"
    },
    {
      "inputs": [],
      "name": "isPolicyActive",
      "outputs": [
        {
          "internalType": "bool",
          "name": "",
          "type": "bool"
        }
      ],
      "stateMutability": "view",
      "type": "function"
    },
    {
      "inputs": [],
      "name": "makeClaim",
      "outputs": [],
      "stateMutability": "nonpayable",
      "type": "function"
    },
    {
      "inputs": [],
      "name": "policyHolder",
      "outputs": [
        {
          "internalType": "address payable",
          "name": "",
          "type": "address"
        }
      ],
      "stateMutability": "view",
      "type": "function"
    },
    {
      "inputs": [],
      "name": "premium",
      "outputs": [
        {
          "internalType": "uint256",
          "name": "",
          "type": "uint256"
        }
      ],
      "stateMutability": "view",
      "type": "function"
    },
    {
      "inputs": [],
      "name": "purchasePolicy",
      "outputs": [],
      "stateMutability": "payable",
      "type": "function"
    }
  ],
  "bytecode": "0x608060405234801561001057600080fd5b506040516107ed3803806107ed8339818101604052810190610032919061009d565b816000819055508060018190555033600260006101000a81548173ffffffffffffffffffffffffffffffffffffffff021916908373ffffffffffffffffffffffffffffffffffffffff16021790555050506100fa565b600081519050610097816100e3565b92915050565b600080604083850312156100b057600080fd5b60006100be85828601610088565b92505060206100cf85828601610088565b9150509250929050565b6000819050919050565b6100ec816100d9565b81146100f757600080fd5b50565b6106e4806101096000396000f3fe6080604052600436106100705760003560e01c80639b65266e1161004e5780639b65266e146100d5578063dbc837c514610100578063e0a73a931461012b578063f5aa02001461015657610070565b80630951f7be1461007557806367c0d00f1461007f57806381f8ac8e146100aa575b600080fd5b61007d61016d565b005b34801561008b57600080fd5b5061009461025f565b6040516100a1919061063a565b60405180910390f35b3480156100b657600080fd5b506100bf610265565b6040516100cc9190610584565b60405180910390f35b3480156100e157600080fd5b506100ea61028b565b6040516100f7919061059f565b60405180910390f35b34801561010c57600080fd5b5061011561029e565b6040516101229190610584565b60405180910390f35b34801561013757600080fd5b506101406102c4565b60405161014d919061063a565b60405180910390f35b34801561016257600080fd5b5061016b6102ca565b005b600360149054906101000a900460ff16156101bd576040517f08c379a00000000000000000000000000000000000000000000000000000000081526004016101b49061061a565b60405180910390fd5b6000543414610201576040517f08c379a00000000000000000000000000000000000000000000000000000000081526004016101f8906105ba565b60405180910390fd5b33600360006101000a81548173ffffffffffffffffffffffffffffffffffffffff021916908373ffffffffffffffffffffffffffffffffffffffff1602179055506001600360146101000a81548160ff021916908315150217905550565b60015481565b600360009054906101000a900473ffffffffffffffffffffffffffffffffffffffff1681565b600360149054906101000a900460ff1681565b600260009054906101000a900473ffffffffffffffffffffffffffffffffffffffff1681565b60005481565b600260009054906101000a900473ffffffffffffffffffffffffffffffffffffffff1673ffffffffffffffffffffffffffffffffffffffff163373ffffffffffffffffffffffffffffffffffffffff161461035a576040517f08c379a0000000000000000000000000000000000000000000000000000000008152600401610351906105da565b60405180910390fd5b600360149054906101000a900460ff166103a9576040517f08c379a00000000000000000000000000000000000000000000000000000000081526004016103a0906105fa565b60405180910390fd5b600360009054906101000a900473ffffffffffffffffffffffffffffffffffffffff1673ffffffffffffffffffffffffffffffffffffffff166108fc6001549081150290604051600060405180830381858888f19350505050158015610413573d6000803e3d6000fd5b506000600360146101000a81548160ff021916908315150217905550565b61043a81610666565b82525050565b61044981610678565b82525050565b600061045c601883610655565b91507f496e636f7272656374207072656d69756d20616d6f756e7400000000000000006000830152602082019050919050565b600061049c602783610655565b91507f4f6e6c792074686520696e73757265722063616e2063616c6c2074686973206660008301527f756e6374696f6e000000000000000000000000000000000000000000000000006020830152604082019050919050565b6000610502601583610655565b91507f506f6c696379206d7573742062652061637469766500000000000000000000006000830152602082019050919050565b6000610542601883610655565b91507f506f6c69637920697320616c72656164792061637469766500000000000000006000830152602082019050919050565b61057e816106a4565b82525050565b60006020820190506105996000830184610431565b92915050565b60006020820190506105b46000830184610440565b92915050565b600060208201905081810360008301526105d38161044f565b9050919050565b600060208201905081810360008301526105f38161048f565b9050919050565b60006020820190508181036000830152610613816104f5565b9050919050565b6000602082019050818103600083015261063381610535565b9050919050565b600060208201905061064f6000830184610575565b92915050565b600082825260208201905092915050565b600061067182610684565b9050919050565b60008115159050919050565b600073ffffffffffffffffffffffffffffffffffffffff82169050919050565b600081905091905056fea26469706673582212201200a14de0229d2a986f45c507f3a6be7d55b9503a3606c339a14eac9243bdbe64736f6c63430008000033",
  "linkReferences": {},
  "deployedLinkReferences": {}
}